:020000040800F2
:1000000000000820C5A80008D14F0008D34F000801
:10001000D54F0008D74F0008D94F00080000000056
:1000200000000000000000000000000031A60008F1
:10003000DB4F000800000000D1A6000835A700082B
:1000400015A9000815A9000815A9000815A9000898
:1000500015A9000815A9000815A9000815A9000888
:1000600015A9000815A9000815A9000815A9000878
:1000700015A90008DD4F000815A90008ED4F00087C
:1000800015A9000815A9000815A9000815A9000858
:1000900015A9000815A9000815A9000815A9000848
:1000A00015A90008FD4F000815A9000815A90008AA
:1000B00015A9000815A9000815A9000815A9000828
:1000C00015A9000815A9000815A9000815A9000818
:1000D00015A9000815A9000815A9000815A9000808
:1000E00015A9000815A9000815A9000815A90008F8
:1000F00015A9000815A9000815A9000815A90008E8
:1001000015A9000815A9000815A9000815A90008D7
:1001100015A9000815A9000815A9000815A90008C7
:1001200015A9000815A9000815A9000815A90008B7
:1001300015A9000815A9000815A9000815A90008A7
:1001400015A9000815A9000815A9000815A9000897
:1001500015A9000815A9000815A9000815A9000887
:1001600015A9000815A9000815A9000815A9000877
:1001700015A9000815A9000815A90008000000002D
:1001800015A9000815A9000815A9000815A9000857
:1001900015A9000815A9000815A9000815A9000847
:1001A00015A9000815A9000815A9000815A9000837
:1001B00015A9000815A9000815A9000815A9000827
:1001C00015A9000815A9000815A9000815A9000817
:1001D00015A9000815A9000815A9000815A9000807
:1001E0000D5000081D5000082D5000083D5000081B
:0801F00015A9000815A900087B
:100200000348044B834202D0034B03B118477047A5
:100210007000002070000020000000000548064B20
:100220001B1AD90F01EBA301491002D0034B03B1F4
:100230001847704770000020700000200000000088
:1002400010B5064C237843B9FFF7DAFF044B13B11E
:100250000448AFF300800123237010BD700000201C
:100260000000000018A9000808B5044B1BB10449A0
:100270000448AFF30080BDE80840CFE7000000006D
:100280007400002018A900080CB410B59CB01EAB77
:10029000029106916FF0004104910791084953F8CB
:1002A000042B0591002402A901931B9400F0E4F9AA
:1002B000029B1C701CB0BDE8104002B0704700BF2C
:1002C0000802FFFF0EB430B59CB06FF000411FABC9
:1002D000049107910A4953F8042B029000240690D8
:1002E000084D0868019302A905951B9400F0C4F914
:1002F000029B1C701CB0BDE8304003B0704700BFCB
:10030000000000200802FFFF10B51C4C00292468E3
:100310009AB02DDB009004904FF40270ADF80C0001
:100320004FF00000199013D001394FF6FF70029181
:100330000591ADF80E006946204600F09DF9421C7B
:1003400001DA8B232360009B00221A701AB010BDC3
:100350004FF6FF7002910591ADF80E0069462046F8
:1003600000F08AF9431C01DA8B2323601AB010BD18
:100370008B2323604FF0FF30F8E700BF0000002020
:1003800030B51446002C9BB005462EDB1A464FF4C0
:100390000273ADF80C304FF00003009104911993F3
:1003A00013D04FF6FF73013CADF80E3069461E9B2B
:1003B0000294059400F060F9421C01DA8B232B6053
:1003C000009B00221A701BB030BD4FF6FF73ADF8D2
:1003D0000E3069461E9B0294059400F04DF9431CB3
:1003E00001DA8B232B601BB030BD8B2303604FF0F1
:1003F000FF30F8E780EA0102844612F0030F4FD184
:1004000011F0030F32D14DF8044D11F0040F51F8E3
:10041000043B0BD0A3F101329A4312F0803F04BF9A
:100420004CF8043B51F8043B16D100BF51F8044B83
:10043000A3F101329A4312F0803FA4F101320BD1B3
:100440004CF8043BA24312F0803F04BF51F8043B38
:100450004CF8044BEAD023460CF8013B13F0FF0F95
:100460004FEA3323F8D15DF8044B704711F0010FC8
:1004700006D011F8012B0CF8012B002A08BF704799
:1004800011F0020FBFD031F8022B12F0FF0F16BF90
:100490002CF8022B8CF8002012F47F4FB3D1704758
:1004A00011F8012B0CF8012B002AF9D1704700BF7D
:1004B0002DE9F0478F681D46AF420B680C46164683
:1004C00036D8B1F90CC01CF4906F0ED13D461846D9
:1004D00031462A4600F06EFEA368DF1B2368A76042
:1004E0002B4400202360BDE8F0874A69096902EBCC
:1004F00042025F1A02EBD2726B1C52103B449342D1
:1005000092BF914699461A461CF4806F804611D0DE
:10051000114600F071FD824600B321693A4600F0B1
:10052000A1FFA38923F4906343F08003A38105E036
:100530002F46CCE701F030F8824658B10AEB0703AA
:10054000A9EB0707A760C4F810A0C4F814902360B3
:100550002F46BCE72169404600F0CEFDA3890C225E
:1005600043F04003C8F800204FF0FF30A381BAE702
:100570002DE9F04F9368176883B09246002B74D032
:100580004FF0000B8B680A6881460C465D4645E0DB
:10059000B4F90C3013F4906F2CD0D4E90401161A7E
:1005A00001EB410202EBD272711C521029449142BC
:1005B00092BF904688460A465B0539D511464846A3
:1005C00000F01AFD019000283DD03246216900F06C
:1005D00049FFA289019B22F4906242F08002A2812D
:1005E0009819A8EB0606A660C4F814802361206061
:1005F000A8462E463246594600F0DCFDDAF80810CF
:10060000A3682268A3EB08033244491BA36022605D
:10061000CAF8081049B3D7E900B50837984610461C
:10062000002DF8D09D421E46B2D2A8462E46E1E7E4
:100630000146484600F0B0FF03460028D0D12169AA
:10064000484600F059FDA3890C2243F04003C9F845
:1006500000204FF0FF30A38100220023CAF80820B9
:10066000CAF8043003B0BDE8F08F00200023CAF8B8
:10067000043003B0BDE8F08F2DE9F04F1C468B89A4
:100680001D069DB088468146934603D50B69002B15
:1006900000F0F1800023099343F22003ADF82930E4
:1006A0009BF800307D4D03940126002B73D0DA4671
:1006B00003E01AF8013F002B75D0252BF9D1BAEBD6
:1006C0000B0473D19AF80020002A64D000234FF065
:1006D000FF32CDE905230AF1010A049307938DF84F
:1006E00053301A9305E0049A06FA03F31A4304926E
:1006F000A2465446052214F8011B284600F000FECD
:10070000A346431B0028EED1049BD80644BF2022F9
:100710008DF8532019079AF8001044BF2B228DF84A
:1007200053202A2950D1039A1168043200290392D8
:100730007CDB07919AF801102E295BD0584C0322DC
:10074000204600F0DDFD38B1049B001B40228240B2
:1007500013430BF1010B04931BF8011B51488DF857
:100760002810062200F0CCFD002865D04E4B002B4F
:1007700055D003AA00924D4B424604A94846AFF318
:10078000008007467A1C06D0099B3B4409939BF8DE
:100790000030002B8BD1B8F80C305B067AD4099866
:1007A0001DB0BDE8F08FBAEB0B04F4D023465A46D7
:1007B00041464846FFF77CFE0130ECD0099B9AF891
:1007C0000020234409937FE7A1F13002092A88BF62
:1007D000D346B1D8079B00E00134217803EB8303B3
:1007E00002EB4303A1F13002092AF5D92E29079320
:1007F000A346A3D19BF801102A2927D1039B9BF87C
:1008000002101A6805920433002A0BF102000393C8
:10081000B8BF4FF0FF338346B8BF05938EE7039B05
:10082000073323F0070308330393ADE7494243F04E
:100830000203079104937DE703AA00921B4B4246F3
:1008400004A9484600F06CFF07469BE7A1F130027F
:100850000023092A05930BF1010B3FF66FAF1BF83C
:10086000011F03EB830302EB4303A1F13002092ACA
:10087000F5D9059362E7402100F0BEFBC8F80000FF
:10088000C8F8100018B14023C8F8143002E70C2350
:10089000C9F800304FF0FF3082E700BF28B30008EE
:1008A00030B3000834B3000800000000B1040008B1
:1008B00070B50F4B0F4DAB42A3EB050607D0B6103A
:1008C000002455F8043B01349847A642F9D80AF0B1
:1008D00023F8094D094B5E1BAB424FEAA60606D032
:1008E000002455F8043B01349847A642F9D870BD5E
:1008F00094B4000894B4000894B4000898B40008B4
:100900000EB470B59DB021AC00254FF4017254F8BF
:10091000046BADF814201B950290069000F0B0F91E
:100920000B4B0B930B4B03904FF6FF710790ADF8F9
:10093000161018680F953246234602A914950194A3
:1009400001F0DCFD1DB0BDE8704003B0704700BF92
:10095000C9200008000000200CB4F0B59DB022AC06
:1009600000254FF401730646084654F8047BADF8A1
:100970001430029106911B9500F082F9034603930F
:1009800007930A4B0B934FF6FF73ADF816303A46B8
:100990003046234602A90F951495019401F0AEFD4F
:1009A0001DB0BDE8F04002B0704700BFC92000088C
:1009B000036A2DE9F041846880460E46002B3BD047
:1009C000A3891B0717D52369ABB1013EA36816F8AD
:1009D000015F013BA360EDB1002B07DAA7699F42DD
:1009E00022462946404610DC0A2D0ED023685A1CA8
:1009F00022601D70EAE72146404600F0D1FC002845
:100A0000E3D04FF0FF30BDE8F08101F0E9FA0130AA
:100A1000DCD1F6E7002B09DA22460A21404601F034
:100A2000DFFA0130EDD00A20BDE8F08123680A2208
:100A3000591C21601A70F6E700F0F4F8C0E700BF17
:100A4000024B01461868FFF7B3BF00BF000000204B
:100A500000207047024A0349034800F02BBC00BF46
:100A600050000020210F0008040000200C4B4168BA
:100A7000994210B5044601D000F052FAA168094B22
:100A8000994202D0204600F04BFAE168064B9942A9
:100A900004D02046BDE8104000F042BA10BD00BFAF
:100AA0008C000020F40000205C0100200020704732
:100AB0002DE9F8432A4C2B49DFF8BC90DFF8BC80C5
:100AC000294FC4F83811002504230822294604F1CF
:100AD0005C00264EE360C4E90055C4E90455A560F6
:100AE0006566A56100F038F9214B63670822294645
:100AF00004F1C400C4E90849C4E90A87C4E91A55E5
:100B0000C4E91E552567C4F8CC50C4F8805026634C
:100B100000F022F9174BC4F8DC30294604F16803D1
:100B2000082204F59670C4F88830C4E92398C4E913
:100B30002576C4E93455C4E93855C4F8D850C4F80A
:100B40003451C4F8E85000F007F904F1D003C4E9C7
:100B50003D98C4E93F76C4F8F030BDE8F88300BFA3
:100B60008C000020550A00080D21000831210008E2
:100B70000900010012000200A5200008CD20000895
:100B8000F8B5254BD3F838310646002B3CD0234F1F
:100B9000D7E90134013B04D51DE05A1C04F1680477
:100BA00019D0B4F90C50013B002DF6D11C4BE36079
:100BB000C4E90155C4E9045565662560A5610822AC
:100BC000294604F15C0000F0C7F8C4E90D55C4E9FA
:100BD00012552046F8BD3D680DB12F46D8E74FF4B9
:100BE000D671304600F008FA044680B10423C0E90B
:100BF00000530C302946A0604FF4D072254600F017
:100C0000ABF83C602F46C3E7FFF752FFBFE70C236A
:100C100038603360DDE700BF8C000020500000200A
:100C20000100FFFF036A03B17047044B044AD3F885
:100C300038310262002BF7D13AE700BF8C00002068
:100C40006D0A0008704700BF704700BF024A0349A1
:100C5000002000F02FBB00BF50000020510A000808
:100C6000024A0349002000F025BB00BF50000020CD
:100C7000AD0A0008000000000000000000000000B5
:100C800030B490F800F020F007016FF0000C10F085
:100C9000070491F820F040F048804FF000046FF016
:100CA0000700D1E9002391F840F000F1080082FA32
:100CB0004CF2A4FA8CF283FA4CF3A2FA8CF34BBBFD
:100CC000D1E9022382FA4CF200F10800A4FA8CF276
:100CD00083FA4CF3A2FA8CF3E3B9D1E9042382FA44
:100CE0004CF200F10800A4FA8CF283FA4CF3A2FA59
:100CF0008CF37BB9D1E9062301F1200182FA4CF291
:100D000000F10800A4FA8CF283FA4CF3A2FA8CF3F7
:100D1000002BC6D0002A04BF04301A4612BAB2FA19
:100D200082F200EBD20030BC7047D1E9002304F01E
:100D30000305C4F100004FEAC50514F0040F91F853
:100D400040F00CFA05F562EA05021CBF63EA0503F0
:100D500062464FF00004AAE7830730B547D0541E1F
:100D6000002A3ED0CAB2034601E0013C39D303F861
:100D7000012B9D07F9D1032C2CD9CDB205EB05250C
:100D80000F2C05EB054535D9A4F1100222F00F0C0C
:100D900003F1100EE6444FEA121C1A46C2E9005550
:100DA000C2E9025510327245F8D10CF1010214F07B
:100DB0000C0F03EB021204F00F0C13D0ACF1040380
:100DC00023F003030433134442F8045B9342FBD142
:100DD0000CF003042CB1C9B21C4403F8011BA3425C
:100DE000FBD130BD64461346002CF4D1F9E703462D
:100DF0001446C0E71A46A446E0E700BFB1F90C303C
:100E00002DE9F0411E070C4680463DD44A68002A71
:100E100056DDE56A002D34D00022D8F80060C8F80D
:100E2000002013F48052216A57D101234046A8477D
:100E3000451C024666D0B4F90C30E56A216A5807B1
:100E400005D56368D21A636B0BB1236CD21A0023E9
:100E50004046A847431C42D00023636023692360B7
:100E6000A389DF0400D56065616BC8F8006041B1FB
:100E700004F14403994202D0404600F03DF90023BA
:100E800063630020BDE8F0810E69002EF9D09B0756
:100E90000D6808BF4B690E6018BF0023AD1B8B6047
:100EA0000BE02B463246216AA76A4046B847B0F1AC
:100EB000000CA5EB0C05664406DD002DF1DCE0E737
:100EC0000A6C002AA5DCDCE7B4F90C3043F04003DF
:100ED000A3814FF0FF30BDE8F081626DAFE7D8F835
:100EE0000010B4F90C301D29F0D80C4ACA40D507BF
:100EF000ECD52269226000226260DA04B4D50029B0
:100F0000B1D0B1E7D8F80030002B94D01D2B01D020
:100F1000162BD9D1C8F80060B3E700BF010040200C
:100F20000B69B3B110B5044682B008B1036A5BB176
:100F3000B1F90C3013B9002002B010BD204602B048
:100F4000BDE81040FFF75ABF0191FFF76BFE019912
:100F5000EEE70020704700BFB8B138B50D4A03690D
:100F6000156804462BB10DB12B6A53B1B4F90C309E
:100F70000BB9002038BD21462846BDE83840FFF7B0
:100F80003DBF2846FFF74EFEF0E7034A03490448F9
:100F900000F090B90000002050000020210F000850
:100FA00004000020014B1868704700BF00000020BB
:100FB00070B5104E336805460C46B3B1214628463D
:100FC00001F05EF8431C0CD0C41C24F00304A042C2
:100FD00005D0211A284601F053F8013001D02046EF
:100FE00070BD4FF0FF34204670BD194601F048F83F
:100FF0003060E3E7C80100202DE9F843CD1C25F05F
:10100000030508350C2D38BF0C25002D064618DBCE
:10101000A94216D8DFF8DC8000F0C4FCD8F8042020
:10102000A2B1144603E0636822467BB11C462368E4
:101030005B1BF8D40B2B1FD89442636854D05360C9
:101040000CE00C2333600020BDE8F88329463046CD
:10105000FFF7AEFF431C044619D00560304600F090
:10106000A3FC04F10B00231D20F00700C21A1CBFD3
:101070001B1AA350BDE8F88361199442256014BF80
:101080005160C8F80410635163684B60E6E7D8F814
:1010900004701FB33C467F68002FFBD1236839469C
:1010A000304604EB030900F0EBFF814516D12368BD
:1010B000ED1A29463046FFF77BFF01300ED023683A
:1010C000D8F804202B442360536883B1A34203D093
:1010D0001A465B689C42FBD10023B0E70C233360C7
:1010E000304600F061FCAEE7C8F80430B6E7C8F857
:1010F0000470B3E7C8010020002950D038B551F87A
:10110000043C0C1F002BB8BFE418054600F04AFC55
:10111000274A13682BB1A3420CD921686018834277
:101120002CD0636028461460BDE8384000F03CBC19
:10113000A3420FD81A465B68002BF9D111685018EA
:10114000844217D02CD3636054602846BDE83840F1
:1011500000F02ABC11685018A04214D020D8216891
:1011600060188342EFD118685B680844C4E9000343
:101170005460EAE723680B441360E6E718685B688D
:1011800008442060CDE72068014450188342116074
:10119000DBD1D3E900040144C2E90014D5E770476C
:1011A0000C232B602846BDE8384000F0FDBB00BF93
:1011B000CC01002088420ED98B1883420BD900EB5A
:1011C000020C002A6ED0624613F801CD02F801CD60
:1011D0009942F9D170470F2A0FD8034602F1FF3C1C
:1011E000002A5FD00CF1010C013B8C4411F8012B5B
:1011F00003F8012F6145F9D1704740EA01039B07CD
:1012000051D1A2F1100370B501F1200C23F00F05AC
:1012100001F1100E00F11004AC441B095EF8105CE3
:1012200044F8105C5EF80C5C44F80C5C5EF8085CFA
:1012300044F8085C5EF8045C44F8045C0EF1100E9F
:10124000E64504F11004E9D1013312F00C0F01EB73
:10125000031102F00F0400EB031328D0043C24F028
:1012600003064FEA940C1E441C1F8E465EF8045B76
:1012700044F8045FB442F9D10CF1010402F0030216
:1012800003EB840301EB840102F1FF3C4AB10CF152
:10129000010C013B8C4411F8012B03F8012F61452F
:1012A000F9D170BD704702F1FF3C03469AE7224630
:1012B000EAE700BF2DE9F8430746884616464FF097
:1012C0000009D6E90154013D10D4A389012B08D9A6
:1012D000B4F90E3001332146384602D0C04749EAFE
:1012E0000009013D6B1C04F16804EED13668002E44
:1012F000E7D14846BDE8F883000000000000000088
:1013000001F0FF01102A2BDB10F0070F08D010F8B6
:10131000013B013A8B422DD010F0070F42B3F6D1BA
:10132000F0B441EA012141EA014122F007047FF0D3
:1013300000070023F0E80256083C85EA010586EA2A
:10134000010685FA47F5A3FA87F586FA47F6A5FA66
:1013500087F68EB9EED1F0BC01F0FF0102F0070272
:1013600032B110F8013B013A83EA010313B1F8D11D
:101370000020704701387047002D06BF35460338FE
:10138000073815F0010F07D1013015F4807F02BF37
:10139000013015F4C03F0130F0BC0138704700BF88
:1013A00038B52F4B1B6805460C4613B11A6A002A44
:1013B0004BD0B4F90C3018071CD5226922B313F0B6
:1013C000010107D0616900204942A060A1613AB1E2
:1013D000002038BD980758BF6169A160002AF7D185
:1013E000190658BF1046F4D543F04003A3814FF0CF
:1013F000FF3038BDD9062CD55A0712D4226943F0E4
:101400000803A381002ADAD103F42071B1F5007F2B
:10141000D5D02146284600F00FFBB4F90C302269E4
:10142000CDE7616B51B104F14402914204D02846EA
:10143000FFF762FEB4F90C300022626322690021DA
:10144000C4E9002123F02403D9E71846FFF7EAFB9B
:10145000AFE7092243F040032A60A381C7E700BF3A
:1014600000000020844641EA000313F003036DD11D
:10147000403A41D351F8043B40F8043B51F8043B57
:1014800040F8043B51F8043B40F8043B51F8043B5E
:1014900040F8043B51F8043B40F8043B51F8043B4E
:1014A00040F8043B51F8043B40F8043B51F8043B3E
:1014B00040F8043B51F8043B40F8043B51F8043B2E
:1014C00040F8043B51F8043B40F8043B51F8043B1E
:1014D00040F8043B51F8043B40F8043B51F8043B0E
:1014E00040F8043B51F8043B40F8043B51F8043BFE
:1014F00040F8043B403ABDD2303211D351F8043B9E
:1015000040F8043B51F8043B40F8043B51F8043BDD
:1015100040F8043B51F8043B40F8043B103AEDD24C
:101520000C3205D351F8043B40F8043B043AF9D29D
:10153000043208D0D2071CBF11F8013B00F8013B70
:1015400001D30B8803806046704700BF082A13D37D
:101550008B078DD010F003038AD0C3F10403D21A95
:10156000DB071CBF11F8013B00F8013B80D331F8C9
:10157000023B20F8023B7BE7043AD9D3013A11F849
:10158000013B00F8013BF9D20B7803704B784370B4
:101590008B788370604670472DE9F041144641B363
:1015A0000AB306460D4600F0C7FD8442074602D83E
:1015B000B4EB500F13D821463046FFF71DFD80468F
:1015C00050B1BC422246294628BF3A46FFF74AFF9F
:1015D00029463046FFF790FD4046BDE8F081A84619
:1015E0004046BDE8F081A046FFF786FD4046BDE8D5
:1015F000F081BDE8F0411146FFF7FEBC2DE9F84F40
:1016000092461F460A698B68DDF828909A42B8BF57
:101610001A46CAF8002091F843300C46064613B12A
:101620000132CAF80020226891065FD5DAF800304E
:101630000233CAF80030226812F0060F11461DD19D
:10164000E1689942D8BF114618DD4FF0000804F157
:10165000190B05E0E568DAF80030ED1A45450CDDB8
:1016600001235A4639463046C847013008F101087F
:10167000F0D14FF0FF30BDE8F88F216894F8433087
:10168000003B18BF01238A060AD5E1185A1C3020F6
:1016900081F84300224494F8451082F84310023345
:1016A00004F1430239463046C8470130E1D023688F
:1016B000DAF80050216903F00603042BD4E9022074
:1016C0001BD08A4220DD4FF00008521A90441A3491
:1016D000002501E0454517DA012322463946304608
:1016E000C847013005F10105F4D1C2E712F0060F39
:1016F0000DD0003B18BF0123D2E7401B8A4220EAED
:10170000E078E2DC0028E2DC0020BDE8F88FE16848
:10171000DAF800309942D8BF114696DCAEE700BF38
:101720002DE9F047174684B00A7E0C9D0C4606460C
:10173000984601F1430C002A35D0A2F15803D9B2E2
:10174000202969D8202B67D8DFE813F0E60066006F
:101750006600660066006600660066006600660059
:101760006600AC00700066006600660066007000EF
:10177000660066006600660021008300C600660001
:101780006600B6006600830066006600EC002B6809
:1017900022686169181D286010061B6802D4520671
:1017A00000F1E08019600023E1462361CDF800805C
:1017B0003B4603AA21463046FFF720FF013020D0E8
:1017C00023694A4639463046C047013019D023685C
:1017D000E068DDF80C909B0718D5484516DD00251C
:1017E00004F1190A04E0E068A0EB0903AB420DDD47
:1017F0000123524639463046C047013005F1010504
:10180000F1D14FF0FF3004B0BDE8F0874845B8BFD4
:10181000484604B0BDE8F08784F84220012004F176
:1018200042090023206184F84330BFE72A68236817
:10183000111D1806296002D4590600F19580106820
:10184000014600286268C0F2938054484FF00A0EA7
:1018500015E020682B6810F0800F53F8041B02D1AC
:10186000400648BF89B26F2A4C482B6014BF4FF026
:101870000A0E4FF0080E0023626884F84330002AF5
:10188000A26051DB236823F00403236000294BD1BD
:10189000002A7BD1E146BEF1080F56D0ACEB09031C
:1018A000236183E72B681A6804332B6004F1420933
:1018B00084F842200120B4E72B686268191D296072
:1018C000D3F8009000214846FFF71AFD002863D0A6
:1018D000A0EB09006060A4E7236843F020032360C5
:1018E00078222F4884F845202A6813F0800F52F898
:1018F000041B03D113F0400F18BF89B22A60DA0726
:1019000044BF43F02003236019B9236823F0200368
:1019100023604FF0100EAEE7582384F845301F487F
:101920002368E1E72368DBE77546E146B1FBF5F3A1
:1019300005FB131A0A46AA4210F80A1009F8011DFD
:101940001946F3D2BEF1080FA8D12368DD07A5D54B
:10195000626823699A42A1DC302309F8013C09F14D
:10196000FF399BE719801EE7B2F90010084668E7C7
:101970002D20002AA26084F8430002DB23F0040338
:1019800023600A2505484942AE46CEE7037884F82D
:10199000423004F142097EE7606842E73CB3000848
:1019A00050B30008704700BF704700BF002A3ED008
:1019B00030B584460446084380070B462ED1032ADF
:1019C00007D82BE0043A25D01EF0803F22D1032A0D
:1019D00022D92068194653F8045BA0F1013EA842C1
:1019E000A4462EEA000E04F10404EBD09CF800009B
:1019F0000C7884421DD1E64668B11EF8010F11F83B
:101A0000014FA2EB0E03A04203F1FF3311D11CEBF7
:101A10000303F1D1002030BDA44619469CF8000014
:101A20000C78A04205D1012AF4D0E646E4E710463E
:101A30007047001B30BD00BF70B5B1F90C300C46CB
:101A4000990796B007D504F147030122C4E904328F
:101A5000236016B070BDB4F90E100029054629DBCD
:101A60006A4601F06FF9002822DB4FF480612846B6
:101A7000019EFFF7C1FA88B3A389206043F0800379
:101A800006F47046A381B6F5005F4FF48063C4E9A5
:101A90000403DED1B4F90E10284600F005F9002841
:101AA000D7D0A38923F0030343F00103A381D0E738
:101AB000B4F90C3013F0800F14BF40264FF4806649
:101AC00031462846FFF798FA40B1A389206043F0D9
:101AD0008003C4E90406A38116B070BDB4F90C30CC
:101AE0009A05B6D423F0030304F1470243F002033E
:101AF0000121C4E90421A3812260AAE770B50C4644
:101B0000B1F90E10002996B015461E460FDB6A4645
:101B100001F018F900280ADB019B03F47043A3F5D8
:101B20000053B3FA83F34FF480625B0908E0A289A3
:101B300012F0800F4FF0000314BF40224FF4806278
:101B4000002033602A6016B070BD00BF08B410B525
:101B5000002A9DB0044636DB4FF40273ADF8143012
:101B60004FF000031B930291069120AB17D0013A6E
:101B70004FF6FF7104920792ADF816101F9A019369
:101B800002A9FEF779FD421C01DA8B232360029B38
:101B900000221A701DB0BDE8104001B070474FF62A
:101BA000FF7104920792ADF816101F9A019302A9D3
:101BB000FEF762FD431C01DA8B2323601DB0BDE8F4
:101BC000104001B070478B2303604FF0FF30F5E702
:101BD0000CB410B5214B00291C689CB038DB4FF0C9
:101BE00000034FF402721B93ADF81420029006908C
:101BF0001FAB18D001394FF6FF7204910791ADF871
:101C0000162002A91E9A01932046FEF735FD421CBC
:101C100001DA8B232360029B00221A701CB0BDE8FE
:101C2000104002B070474FF6FF7204910791ADF873
:101C3000162002A91E9A01932046FEF71DFD431CA3
:101C400001DA8B2323601CB0BDE8104002B070475E
:101C50008B2323604FF0FF30F5E700BF000000202A
:101C60000EB400B582B003AB816853F8042B019326
:101C700000F072F802B05DF804EB03B0704700BFEB
:101C80000FB400B5074983B004AB086853F8042BC0
:101C90008168019300F060F803B05DF804EB04B0D4
:101CA000704700BF0000002038B5074D00220446F1
:101CB00008462A6003F064FA431C00D038BD2B6844
:101CC000002BFBD0236038BDD00100209368013B7E
:101CD000002B936011DA10B49469A34209DB0A293E
:101CE00007D01368581C1060197008465DF8044B43
:101CF00070475DF8044B00F073B91368581C10600E
:101D000019700846704700BF9BB1F8B513440646EA
:101D10000F46541E5D1E01E0AC4208D014F8011FAE
:101D20003A463046FFF7D2FF431CF5D1F8BD0020FC
:101D3000F8BD0020704700BF936810B514461BB96A
:101D400018460023636010BD00F0FEF90023A36075
:101D50000023636010BD00BF2DE9F04FA1B08B469A
:101D600091461C46049018B1036A002B00F01C81B8
:101D7000BBF80C30180740F19580DBF81030002BD1
:101D800000F090800023CA460D9343F22003ADF883
:101D900039309AF80030864E07940127002B79D00D
:101DA000D14604E019F8013F002B00F08580252B77
:101DB000F8D1B9EB0A0840F0828099F80030002B86
:101DC00068D000234FF0FF32CDE9092309F1010962
:101DD00008930B938DF863301E9305E0089A07FA79
:101DE00003F31A430892A1464C46052214F8011B3E
:101DF0003046FFF785FAA246831B0028EED1089BE8
:101E0000D90644BF20228DF8632099F800101A07E4
:101E100044BF2B228DF863202A2966D1079A1168C6
:101E2000043200290792C0F29A800B9199F80110B0
:101E30002E2970D05F4C03222046FFF761FA38B19B
:101E4000089B001B4022824013430AF1010A0893B9
:101E50001AF8011B58488DF838100622FFF750FA7F
:101E6000002800F08280554B002B69D007AA009211
:101E7000534B04985A4608A9AFF300800390039B84
:101E8000013307D00D9B039A13440D939AF8003049
:101E9000002B85D1BBF80C305B060AD40D9821B01D
:101EA000BDE8F08F04985946FFF77AFA00283FF40E
:101EB00069AF4FF0FF30F2E7B9EB0A08EAD00AF158
:101EC000FF35CDF81490A946049D01E0A0453ED908
:101ED0004C465A4619F8011F2846FFF7F7FE023410
:101EE0000130A4EB0A04F1D1D4E7A1F13002092AB0
:101EF00088BFCA469CD80B9B00E00134217803EBD5
:101F0000830302EB4303A1F13002092AF5D92E29FC
:101F10000B93A2468ED19AF801102A292FD1079B44
:101F20009AF802101A6809920433002A0AF1020092
:101F30000793B8BF4FF0FF338246B8BF099379E7E4
:101F4000079B073323F00703083307939AE70D999C
:101F5000DDF81490414499F800300D912FE7494283
:101F600043F002030B91089360E707AA0092144B19
:101F700004985A4608A9FFF7D3FB03907FE7A1F125
:101F800030020023092A09930AF1010A3FF652AFF1
:101F90001AF8011F03EB830302EB4303A1F13002A4
:101FA000092AF5D9099345E7FEF73CFEE0E600BFB4
:101FB00028B3000830B3000834B300080000000064
:101FC000091D000810B4054C8446134620685DF8CE
:101FD000044B0A466146FFF7BFBE00BF0000002069
:101FE000F8B50D461446064610B1036A002B37D0EB
:101FF000A389A269A2601A0719D52369BBB1226817
:102000006169D31AEDB299422F4620DD0133A168F0
:102010000139A160511C2160157062699A420DD08E
:10202000A389DB0701D50A2D08D03846F8BD214623
:102030003046FFF7B5F938B92369E0E72146304665
:10204000FEF76EFF0028F0D04FF0FF37EDE7214696
:102050003046FEF765FF0028F6D122680123D6E757
:10206000FEF7E0FDC4E700BF10B4044C03460A4687
:1020700020685DF8044B1946FFF7B2BF000000204E
:1020800038B5074D0022044608462A6003F07CF864
:10209000431C00D038BD2B68002BFBD0236038BD1B
:1020A000D001002010B50C46B1F90E1000F034FE3E
:1020B000002803DB636D0344636510BDA38923F42B
:1020C0008053A38110BD00BF002070472DE9F0416F
:1020D0000C46B1F90C101F46CB05054616460BD42D
:1020E00021F48051A1813B46B4F90E1032462846B6
:1020F000BDE8F04100F044BFB4F90E100223002205
:1021000000F082FEB4F90C10EAE700BF10B50C46EF
:10211000B1F90E1000F078FEB4F90C30421C0EBF7D
:1021200023F4805343F480536065A38110BD00BF46
:10213000B1F90E1000F028BD51F8043C181F002B17
:10214000BCBF0B58C01870479368002B00F0F88094
:102150002DE9F04FB1F90CC01CF0080F83B0904688
:1021600081460C4631D00B697BB31CF00207D8F8CE
:10217000006038D00027D4F828B0216ADFF8C4A264
:102180003D4655452B463A4628BF53464846C5B1BD
:10219000D847002840F3CA80D8F808301B1A0744F3
:1021A0002D1AC8F80830002B00F0B68055452B4694
:1021B000D4F828B0216A28BF53463A464846002D35
:1021C000E6D1D6E900750836DBE721464846FFF739
:1021D000E7F8002840F0AF80B4F90CC0D8F80060F0
:1021E0001CF00207C6D11CF0010A63D12368A16864
:1021F000574618468B46002F58D01CF4007F00F03D
:10220000B580B9420A4600F2E1801CF4906F2FD0ED
:10221000216962695D1A02EB420202EBD2726B1C09
:1022200052103B44934292BF93469B461A461CF47D
:10223000806F00F0EA8011464846FEF7DDFE002878
:1022400000F0F9802A4621690090FFF70BF9A28976
:10225000009B22F4906242F08002A2815819ABEBFD
:102260000505C4F814B02361A5602060BB463A465A
:1022700051460092FEF79EFFA1682368009AA1EBE9
:102280000B011A443D46A16022600027D8F80830AF
:102290005B1BAA44C8F80830002B3DD02368A16816
:1022A000B4F90CC018468B46002FA6D1D6E900A77A
:1022B00008369EE73846BB463D460097002D41D084
:1022C000002846D0009A2068A168D4E90473AA4285
:1022D00028BF2A46B84204D901EB030A524500F34D
:1022E0008580934275DC216AA76A5A464846B847FA
:1022F000B0F1000A1ADD009BB3EB0A0300930FD084
:102300000120D8F80830A3EB0A03D344A5EB0A0553
:10231000C8F80830002BD1D1002003B0BDE8F08F01
:1023200021464846FEF7FCFD0028EAD0B4F90C30FF
:1023300043F04003A3814FF0FF3003B0BDE8F08FBE
:1023400000207047756833460836002DFAD0D3F860
:1023500000B02A460A215846FEF7D2FF002867D06F
:102360000130A0EB0B0300931A46ACE722699A42B6
:1023700014D36269BA4211D86FF00043BB4228BF40
:102380003B46A56A93FBF2F3216A02FB03F348463E
:102390005246A847051EC9DD7F1B77E7B94228BF13
:1023A00039460D4618460A465146FEF703FFA16816
:1023B0002368491B2B44A16023600029ECD12146EE
:1023C0004846FEF7ADFD0028E6D0AFE7BB463A46EB
:1023D0004EE759460192FEF7EDFE019AA3689B1A5B
:1023E000A360236813442360924684E7594652460B
:1023F000FEF7E0FE23685344236021464846FEF77B
:102400008FFD00283FF477AF90E74846FFF7C4F808
:10241000034600287FF422AF21694846FEF76CFE90
:10242000B4F90C300C22C9F8002023F080037FE7B8
:102430006A1C009247E70C22B4F90C30C9F800205E
:1024400076E700BF00FCFF7F38B54B1C1AD093899C
:10245000144623F020035268A381636BCDB2A3B16D
:10246000A36B934209DD23685A1E226003F8015CC6
:10247000636801336360284638BD214600F0DAFC0A
:102480000028F0D04FF0FF35F5E7236921682BB124
:102490008B4203D211F8013CAB420ED02346C4E973
:1024A0000F1204F1440003226063A26303F8465F45
:1024B0000122C4E90032284638BD01390132C4E99D
:1024C0000012D8E710B50C46496B69B104F144031A
:1024D000994201D0FEF710FE236C63600020606318
:1024E00013B1E36B236010BDA2892369002142F080
:1024F00020026160A2814FF0FF30F3E72DE9F04741
:10250000ADF5247D92F8009001930023CDE9453389
:10251000864BA1930DF10808854BA293CDF81C8141
:10252000B9F1000F14D0834F17F80930924613F019
:10253000080306460C460AF101052ED1B9F1250F14
:1025400045D06368002B08DD23681A784A450FD010
:1025500045980DF5247DBDE8F087A29B21463046C5
:102560009847002840F00B8123681A784A45EFD13C
:10257000013323606368013B6360469B0133AA46D5
:1025800046939AF80090B9F1000FE1D017F809309E
:1025900013F008030AF10105D0D062680DE023684A
:1025A0001A78BA5C110703F101030ED562684699E7
:1025B000013AC4E9003201314691002A21463046F1
:1025C000EDDCA29B98470028E9D0AA46D9E74493BE
:1025D00042939AF801102A2905D1102342939AF8C0
:1025E00002100AF10205A1F13003092B0DD80023D6
:1025F00003EB830301EB4301A1F13003449315F88E
:10260000011FA1F13002092AF2D9DFF82CA103221F
:102610005046FEF775FE38B1429AA0EB0A0001233E
:102620008340134301354293AA461AF8013B782BA5
:1026300000F28480DFE813F0A900820082008200AB
:10264000820082008200820082008200820082007A
:10265000820082008200820082008200820082006A
:10266000820082008200820082008200820082005A
:10267000820082008200820082008200820082004A
:1026800082001101820082008200820082008200AA
:10269000820082008200820082008200820082002A
:1026A000820082008200820082008200820082001A
:1026B000820082008200820082008200820082000A
:1026C0008200C700C700C70082008200820082002B
:1026D00082008200820082008200820082008200EA
:1026E0008200820082008200CA0082008200FC0018
:1026F0008200820082008200820082008200070144
:10270000DE00C700C700C70082000E018200820001
:1027100082008200E000EE00F20082008200F900F8
:102720008200DE0082008200CA0000BF4924000847
:10273000C5240008ADA9000830B30008032348935E
:102740000A2343936368002B4DDD429B580624D532
:10275000489B022B40F38380042B40F38780474B38
:10276000002B3FF40EAF01AB224642A93046AFF337
:10277000008001283FF4ECAE02287FF402AF4598B8
:1027800018B1A3895B067FF5E4AE4FF0FF30E0E6B9
:10279000A29B304698470028F1D122681378FB5C51
:1027A0001907D5D563684699013B481C002B214683
:1027B0004690636002F10102EADD22601378FB5C5F
:1027C0001907C5D5EEE705234893BBE7429A42F4C3
:1027D0000072429210226E2B43921DD8032348931D
:1027E0006368002BB1DCA29B214630469847002845
:1027F000ABD0C4E70A22EEE7429BDA063FF5C1AE52
:10280000019A4699101D0190DB0713684CBF19808F
:102810001960B6E6082343930423E0E7429B43F4A0
:102820000873429310234393F6E70223489389E702
:102830005146404600F09CFA429B43F040034293CD
:1028400082460123CBE7429B43F04003429300239F
:10285000489377E700234393C0E7554671E601AB01
:10286000224642A9304600F00BF882E701AB22462F
:1028700042A9304600F06CF87BE700BF0000000082
:102880002DE9F8430D461446AA68896907462AB916
:10289000002914BF4FF0FF320122AA602A68D00637
:1028A00003D41A68101D18601668DFF8A0804FF076
:1028B000000901B3012937D002293BD123681A78D6
:1028C00018F80220120735D42A68D10609F1010947
:1028D00003D41B7806F8013B23686168AA680139B4
:1028E0000133013AC4E90031AA606AB1002904DD6C
:1028F000A9690029DED12368E6E7D5F880312146B1
:10290000384698470028F3D02B6813F0100305D100
:10291000EA680132EA60AA6902B133702B694B445C
:1029200000202B61BDE8F88323686A691878125C7F
:10293000002AC9D1B9F1000FE6D101290846F1D02A
:102940002B6813F01003E9D1E2E700BFADA900083E
:102950002DE9F04F87B00C46074615468648874A52
:1029600000938B688969864E032908BF1046019041
:1029700096E8070003F1FF3C0DF10C0ABCF5AE7FB1
:102980008AE8070040F2B0806FF4AE7103EB0109F2
:1029900040F25D13A360A0464FF0000B58F81C2BCB
:1029A00042F45062226046462B68DAF8000019783B
:1029B0000222FEF7A5FC50B3BBF1010F0CD0BBF116
:1029C000020F00F0B280A3685A1EA260A3B94FF0B4
:1029D000010B0AF1040AE7E7D4E900321AB9082228
:1029E00043F40073626023F4A0632360A3685A1E5B
:1029F000A260002B00F08A802B685A1C2A601B788A
:102A000006F8013B6B68013B002B6B6073DD0BF13B
:102A1000010BBBF1030FDCD16168002967D0C1F164
:102A20001001584B6069194400F0A2F9A368002B0B
:102A300000F09F804FF0000A06E02B6801332B6006
:102A4000A368013BA36003B3D5F800E062699EF878
:102A500000C012F80C1022683046B9B1BCF1300F3A
:102A600022F4106155D021609EF8003000F8013B3F
:102A700006466B68013B002B294638466B60DCDC60
:102A8000D4F8803198470028DAD02268D1050CD5D7
:102A9000464507D916F8011CD4F87C312A46384639
:102AA000013E9847464562D0226812F0100211D1CB
:102AB00032706368019D38464146A84723689A06EC
:102AC00046D500990B681A1D0A601B681860E368F8
:102AD0000133E3602369A6EB0806564433442361BF
:102AE000002007B0BDE8F08F4FF0000953E70A233C
:102AF0006360062195E7D4F8803129463846984727
:102B0000002884D022684FF0000ABFE74FF0020B84
:102B10005FE71205A7D501330AF1010AB9F1000FE9
:102B2000A7D0A36009F1FF39A3E7236803F4C062CB
:102B3000B2F5007F7FF470AF43F480732360A36825
:102B4000102262605A1EA260002B3FF465AF53E76B
:102B5000009D2A68DF0702F1040103D5296013688C
:102B60001880B4E7009B196013681860AFE7012074
:102B7000B7E79A4689E700BFE1300008E52C000876
:102B8000A0A9000864B3000838B5074D0022044628
:102B900008462A6002F0ECFA431C00D038BD2B68CE
:102BA000002BFBD0236038BDD0010020242B2DE961
:102BB000F84F43D8012B41D0804649481F468E46E6
:102BC00075461EF801BB10F80B4014F00804F7D14D
:102BD000BBF12D0F6FD0BBF12B0F08BF9EF800B0DB
:102BE0006FF0004908BF05F1020E73BBBBF1300F57
:102BF0004BD00A273B460025B9FBF7F6284607FBD2
:102C0000169A05E03AD007FB00C001251EF801BB6B
:102C1000ABF1300CBCF1090F06D9ABF1410CBCF1A2
:102C2000190F19D8ABF1370C63451EDDB5F1FF3F25
:102C3000ECD08642E6D24FF0FF35E7E7FEF7B2F977
:102C4000162303600020BDE8F88F102BD3D1BBF111
:102C5000300F23D01F46CEE7ABF1610CBCF1190F4A
:102C600003D8ABF1570C6345E0DC6B1C2BD054B997
:102C7000002AE8D085BB1160BDE8F88FE245C2DAD2
:102C80004FF0FF35C2E74042F2E79EF8003003F014
:102C9000DF03582B08D008273B46ACE79EF800001E
:102CA00000F0DF005828D5D110279EF801B03B4630
:102CB0000EF1020E9FE79EF800B04FF0004905F1BB
:102CC000020E012491E72223C8F8003032B10EF140
:102CD000FF3148461160CFE78146F8E74846B2E742
:102CE000ADA9000862E700BF10B4044C8446134647
:102CF00020685DF8044B0A46614657E70000002053
:102D000010B4044C8446134620685DF8044B0A4610
:102D100061464BE70000002038B50C46084D84465C
:102D2000114620461A4600232B60644602F002FA40
:102D3000431C00D038BD2B68002BFBD0236038BD6E
:102D4000D001002070B50C46084D034600262046F1
:102D500011461C462E6002F00EFA431C00D070BDD6
:102D60002B68002BFBD0236070BD00BFD00100207A
:102D700070B50C785E2C864624D00023481C9C46F7
:102D8000002263F3070263F30F2263F3174263F336
:102D90001F620EF58071734643F8042B8B42FBD102
:102DA00074B18CF001010EF80410451C15F8013CBB
:102DB0002D2B0ED05D2B0AD01BB11C462846F2E706
:102DC000013870BD01234C78881C9C46D8E7284602
:102DD00070BD90F801C0BCF15D0FEED06445ECDC35
:102DE000661C02300EEB060202F8011BA2EB0E037A
:102DF000013B9C45F8DCACEB0403013B6445A8BFF8
:102E000000230235F418D1E738B50C46084D844646
:102E1000114620461A4600232B60644602F0B2F9A0
:102E2000431C00D038BD2B68002BFBD0236038BD7D
:102E3000D001002001F144032DE9F0410C46496B1B
:102E4000994214D0A66B77003A46FEF7A5FB0546DB
:102E500030B300EB0608014632464046FEF702FB5F
:102E6000C4E90D57C4F800800020BDE8F0814FF49C
:102E70008061FEF7C1F898B194F846304FF4806253
:102E8000C4E90D0280F8FF3394F8453080F8FE3332
:102E900094F8442080F8FD2300F2FD332360E3E73B
:102EA0004FF0FF30E1E700BF70B54C1C2BD00E4651
:102EB0000546144610B1036A002B4CD0B4F90C300F
:102EC00023F020025807A28106D4D9061BD51B0780
:102ED00034D442F00402A281626B6368F6B2AAB1F4
:102EE000A26B9A4209DD23685A1E226003F8016C26
:102EF000636801336360304670BD21462846FFF7A2
:102F000099FF0028EFD04FF0FF36F4E722692168DF
:102F10002AB18A4203D211F8012CB2421ED02246B5
:102F2000C4E90F1304F1440003236063A36302F8B0
:102F3000466F0123C4E90023304670BD2146284670
:102F4000FDF7EEFF0028DED1B4F90C20A06022F0DE
:102F50000802A061BDE7FDF765FEAFE70139013367
:102F6000C4E90013C7E700BF10B4044C03460A4687
:102F700020685DF8044B1946FFF796BF000000205B
:102F800038B50C46084D8446114620461A460023A3
:102F90002B60644602F0DEF8431C00D038BD2B687D
:102FA000002BFBD0236038BDD00100202DE9F04775
:102FB000074649480E46354616F801EB10F80EC094
:102FC0001CF0080CF7D1BEF12D0F5AD0BEF12B0F1B
:102FD00003BF96F800E06446AE1C64464BB9BEF1F0
:102FE000300F5CD00A23DFF8F4804FF0050A9946D1
:102FF0000AE0102B4AD04FF0FF38B8FBF3F803FB80
:1030000008FA6FEA0A0A99460025284605E02CD0FE
:1030100009FB00C0012516F801EBAEF1300CBCF144
:10302000090F06D9AEF1410CBCF1190F0BD8AEF166
:10303000370C634510DDB5F1FF3FECD04045E6D9D4
:103040004FF0FF35E7E7AEF1610CBCF1190F03D883
:10305000AEF1570C6345EEDC6B1C0BD004B1404263
:103060000AB165B91160BDE8F087D445D0DD4FF0F5
:10307000FF35D0E722233B602846002AF3D0711E9B
:10308000F0E796F800E00124AE1CA7E7BEF1300F90
:1030900011D04FF00F0A6FF070489946B4E73378BB
:1030A00003F0DF03582B0BD008234FF0070A6FF013
:1030B00060489946A8E7307800F0DF005828E8D14A
:1030C0004FF0100996F801E04FF00F0A02366FF04A
:1030D00070484B4698E700BFADA900089999991927
:1030E00064E700BF10B4044C8446134620685DF8C2
:1030F000044B0A46614659E70000002010B4044C16
:103100008446134620685DF8044B0A4661464DE745
:103110000000002053B94AB9002908BF00281CBF8D
:103120004FF0FF314FF0FF3000F06AB9ADF1080CFD
:103130006DE904CE00F006F8DDF804E0DDE90223D5
:1031400004B070472DE9F047089D0E4604460F462F
:10315000002B4AD194468C45B2FA82F260D942B132
:10316000C2F12003974020FA03F30CFA02FC1F433C
:1031700094404FEA1C4E1FFA8CF6B7FBFEF1230C6D
:103180000EFB117743EA074301FB06F098420AD988
:103190001CEB030301F1FF3780F01581984240F2E8
:1031A0001281023963441B1AA4B2B3FBFEF00EFB7A
:1031B000103344EA034400FB06F6A6420AD91CEB8E
:1031C000040400F1FF3380F00081A64240F2FD804C
:1031D0006444023840EA0140A41B00211DB1D440E0
:1031E0000023C5E90043BDE8F0878B4205D90DB146
:1031F000C5E9000100210846F5E7B3FA83F100298B
:1032000046D1B34202D3824200F2F580841A66EBC3
:10321000030201201746002DE5D0C5E90047E2E78B
:10322000002A40F09380A1EB0C034FEA1C471FFAE1
:103230008CFE0121B3FBF7F607FB1630230C43EAA3
:1032400000430EFB06F0984208D91CEB030306F17D
:10325000FF3802D2984200F2D08046461B1AA4B230
:10326000B3FBF7F007FB103344EA03440EFB00FE08
:10327000A64508D91CEB040400F1FF3302D2A64591
:1032800000F2B6801846A4EB0E0440EA0640A5E71B
:10329000C1F120078B4022FA07FC4CEA030C06FA26
:1032A00001FE20FA07F426FA07F344EA0E0400FAB6
:1032B00001F84FEA1C404FEA1449B3FBF0FE1FFA35
:1032C0008CF600FB1E3349EA03430EFB06F99945D1
:1032D00002FA01F20BD91CEB03030EF1FF3A80F066
:1032E0008580994540F28280AEF1020E6344A3EBE3
:1032F0000909A4B2B9FBF0F300FB139944EA0944AD
:1033000003FB06F6A64208D91CEB040403F1FF30C8
:1033100068D2A64266D9023B644443EA0E40A41B2D
:10332000A0FB02E6B4427346B14652D34FD05DB122
:10333000B8EB030264EB090404FA07F722FA01F37D
:103340001F43CC40C5E9007400214CE7C2F12001C5
:1033500020FA01F30CFA02FC26FA01F196403343FD
:103360004FEA1C471FFA8CFEB1FBF7F007FB101663
:10337000190C41EA064100FB0EF68E4204FA02F4F3
:1033800008D91CEB010100F1FF382DD28E422BD958
:1033900002386144891B9BB2B1FBF7F607FB16119B
:1033A00043EA014306FB0EF1994208D91CEB0303E3
:1033B00006F1FF3814D2994212D9023E63445B1AD7
:1033C00046EA004136E73946EDE6184602E7F045A1
:1033D000ADD2BEEB020366EB0C060138B146A6E7A0
:1033E0004646ECE7034698E74046D3E7D6467EE7F5
:1033F0006444023847E708460DE7023E63442DE780
:10340000704700BF10B50C4601224FF4005104482C
:1034100002F034FF21460348FEF732FC10BD00BF26
:1034200000040240B0AA000808B50F48FDF708FBE9
:1034300000F0A2FC60B900F09FF960B900F09EFABC
:1034400060B900F085F960B90848FDF7F9FA08BDE0
:1034500000F0F2FDEFE700F0EFFDEFE700F0ECFD2C
:10346000EFE700F0E9FDEFE7CCAA0008E8AA0008C2
:1034700000B583B0084800F089FB05F0EDFF01902E
:103480004FF48051054802F0FFFE4FF47A7101A815
:1034900006F0F4F8F4E700BFFCAA000800040240BC
:1034A00078B138B50D4614460749FDF729FA0128C9
:1034B00001D0012038BD2068A84294BF002001201F
:1034C000F8E70120704700BF0CAB000870B582B070
:1034D00005460E46104601AA012100F0D5FC6A46B9
:1034E00041F28831FFF7DCFFF8B91D4B188800F076
:1034F00057FA38BB00984FF47A7303FB00F0194B6E
:10350000A3FB0030800906F011F9154C2368164A18
:1035100031462846FEF75CFB236803F58073236081
:10352000B3F5805F18D201200AE000240C4B1C6028
:1035300041F288330D4A31462846FEF749FB2046C2
:1035400002B070BD0024064B1C60094A3146284673
:10355000FEF73EFB2046F3E700202060F0E700BFC7
:10356000D4010020D34D62104CAB000810AB000812
:1035700038AB000878B138B50D4614460749FDF759
:10358000BFF9012801D0012038BD2068A84294BFAE
:1035900000200120F8E70120704700BF5CAB000865
:1035A00030B583B004460D46104601AA012100F053
:1035B0006BFC6A4640F6FF71FFF7DCFF68B9BDF8A7
:1035C000000000F0EDF970B9009B0A4A2946204638
:1035D000FEF7FEFA002003B030BD074A2946204618
:1035E000FEF7F6FAF6E7054A29462046FEF7F0FA16
:1035F000F0E700BF94AB000860AB000838AB0008F0
:1036000010B582B00023019330B10C4601AA0949DC
:10361000FDF776F9012802D0012002B010BD019B10
:103620005A1E022A04D8DBB2013B23700020F4E7C3
:103630000120F2E70CAB000830B583B004460D461C
:10364000104601AA012100F01FFC6A4640F6E34142
:10365000FFF726FF68B9BDF8000000F0B7F980B9A0
:10366000009B0B4A29462046FEF7B2FA002003B021
:1036700030BD40F6E343074A29462046FEF7A8FA44
:10368000F4E7054A29462046FEF7A2FAEEE700BF16
:10369000DCAB0008B4AB000838AB000838B5044612
:1036A0000D4600F077F930B9064A29462046FEF764
:1036B0008FFA002038BD044A29462046FEF788FAD2
:1036C000F7E700BF3CAC0008F8AB000870B582B06B
:1036D00005460E46104601AA012100F0D5FB0DF16A
:1036E0000301FFF78DFFB0B9154B1C68772C1DD86F
:1036F000631C134A1360610089B29DF8030000F057
:1037000019F90028F0D123460E4A31462846FEF723
:103710005FFA012012E00A4B08221A6003230A4ACA
:1037200031462846FEF754FA002007E008221A60C6
:10373000064A31462846FEF74BFA002002B070BD1B
:103740005C00002070AC000850AC000888AC000899
:1037500010B50024042C08D8064B53F8240000F0C0
:1037600065FB012803D10134F4E7002010BD0120DE
:10377000FCE700BF84B3000810B5002201218020BF
:1037800005F0FEF91A4C2060012005F00EF8194BE7
:10379000186023683BB340B3174B5B6FB3B1DB6971
:1037A000B3F5807F17D1144B5B6F5B6ABBB91248CE
:1037B00003689A6942F008029A619A6942F010021D
:1037C0009A6101220D4904F09FFD10BD0C4800F0E4
:1037D000DDF90120F9E70B4800F0D8F9E3E70A48E2
:1037E00000F0D4F9E3E70120EFE70120EDE700BFA7
:1037F000DC010020D80100200C110020E001002095
:1038000084AE0008C0AE0008F8AE0008002918BF5A
:10381000002800D1704708B50A46642301460248D3
:1038200004F026FC08BD00BF0C11002038B50029AB
:1038300018BF002826D004460D46144B1B6863B100
:1038400006F0BAF9012808D06421104B186804F07A
:10385000B7FF012807D0032415E029462046FFF7CB
:10386000D5FF00240FE064232A462146084804F0CF
:10387000FFFB044600231A4619460448006804F07A
:10388000BCFE00E00124204638BD00BFD801002066
:103890000C11002060B108B50B460146064A1068BD
:1038A00040B1012205F0A7FA012800D0002008BD90
:1038B000002070470020FAE7DC01002000B583B04B
:1038C0000023019302680E4B1B689A4202D003B09A
:1038D0005DF804FB01AB01220A490B48006805F0C2
:1038E00032FA019B002BF2D04FF0E0234FF08052D0
:1038F000C3F8042DBFF34F8FBFF36F8FE7E700BF0F
:103900000C110020E0010020DC010020012804D07F
:10391000022804D028B90448704704487047044876
:1039200070470020704700BF880D0020340D002034
:10393000E00C002038B505460C46FFF7E7FF28B13C
:103940000F230222214603F0A1FE38BD294602487A
:1039500000F01CF90120F8E754AF0008002918BF57
:10396000B0F5805F03D200220A8207220A8201207A
:1039700070470120704701207047000008B5012200
:103980004FF48061024802F079FC002008BD00BFBE
:103990000014024008B5C0210020FFF7CBFF08BD8E
:1039A00000B587B001A9FFF7D9FF40B901A8FFF71B
:1039B000E0FF40B9FFF7DFFF10B1012000E0012078
:1039C00007B05DF804FB0120FAE7000008B540F6F7
:1039D000E343984201D9012008BD8002034BA3FBB9
:1039E0000030C0F34F10FFF7DBFFF5E79F00EE0953
:1039F000BFF34F8F0549CA6802F4E062044B1343DA
:103A0000CB60BFF34F8F00BFFDE700BF00ED00E0CC
:103A10000400FA05031E04DB18468B4202D3481E3D
:103A2000704700207047000008B50B210248FFF7DF
:103A3000EDFEFFF7DDFF00BFE8B30008002918BF67
:103A4000002816D038B504460D460A4B1B685BB1FA
:103A500006F0B2F8012807D000232A46214605487F
:103A6000006805F0E4F838BDA9B22046FFF7CEFEA5
:103A7000F9E7704770070020002918BF00281BD005
:103A800070B506460D460D4B1B6883B106F094F8E1
:103A900001280CD00024AC420DD264232A1B31191A
:103AA0000648006805F0C3F828B10444F3E7A9B25A
:103AB0003046FFF7ABFE70BD704700BF70070020B7
:103AC000F8B507460D46164632462946384600F0F8
:103AD0000DFA04462846FDF7D3F801462846FFF7BD
:103AE000CBFF002CF0D1F8BD10B50024042C08D871
:103AF000064B53F8240000F099F9012803D1013452
:103B0000F4E7002010BD0120FCE700BFF4B300087B
:103B100008B5024AFEF75CF8002008BD80AF000837
:103B200010B50446054AFEF753F82046FDF7A8F8FD
:103B3000204406F0CBF9002010BD00BFB8AF00084C
:103B400010B50446054AFEF743F82046FDF798F8FD
:103B5000204406F05DF9002010BD00BFD4AF00087E
:103B600070B582B004460D4606F0F8FC064606F035
:103B7000FBFC00903346044A29462046FEF728F80D
:103B8000002002B070BD00BFF0AF00080FB430B528
:103B900083B0194B1B682BB306F00EF8012818D11F
:103BA000002407AB0193154D069A4FF48071284607
:103BB000FCF7AAFB4FF48071FFF72CFF0146284663
:103BC000FFF73CFF012C0FD003B0BDE8304004B03C
:103BD00070470A21084B186804F0F2FD04460128DA
:103BE000DFD0F1E70024DCE700231A46194602483B
:103BF000006804F002FDE7E76C0700206C06002077
:103C000010B582B004468DF8070001210DF10700C0
:103C1000FFF714FF204602B010BD000000B591B0C0
:103C20004FF0FF33402269460548006805F0E3F88D
:103C30000028F5D081B26846FFF7F8FDF0E700BF35
:103C40007007002030B583B05A212648FFF714FFD3
:103C50004FF4806224492548FFF732FF02212448AF
:103C6000FFF70AFF002408E002212248FFF704FFC3
:103C7000ECB902211E48FFF7FFFE4FF0FF310DF1B6
:103C80000700FFF707FE0128F7D19DF807300A2B40
:103C900018BF0D2BE8D07F2B18BF082B11D1002C9B
:103CA000EBD0013C03211448FFF7E6FEE5E713489B
:103CB000002505554FF480620B49FFF701FF2C46A4
:103CC000D7E7A3F12002D2B25E2AD6D87E2CD4D870
:103CD000651C0A4A135501210DF10700FFF7CCFEC0
:103CE0002C46CAE724B000086C02002080B000080F
:103CF00088B000087CB000088CB00008EC010020FF
:103D000008B501F07BFEC0F3DB030C4AA2FB0323E2
:103D10004CF24F32B2EB400F0AD2DB09013B0848AC
:103D2000026893620023536202F0ECFD10B908BDF3
:103D30000023F4E70348FFF729FFF8E7C55A7C0A98
:103D4000F00E002090B0000810B4084B1B685B6AAE
:103D50009BB2074A1088181A06490C6814FA80F0BA
:103D6000086013805DF8044B704700BFF00E002020
:103D7000E8010020E401002010B5002201214FF4E9
:103D8000806004F0FDFE084C2060012004F00DFD71
:103D9000064B186023681BB120B1FFF7A5FE10BDCC
:103DA0000120FCE70120FAE7700700206C070020E3
:103DB000034600E001331A780AB1202AFAD1002123
:103DC000084601E0002101331A7832B1202AF9D0E7
:103DD0000029F8D101300121F5E7704708B50F4BF4
:103DE0001B680F4A1268934207D30C4B1A680C4B9E
:103DF0001B689A420DD2012008BD0A4A52F82330AE
:103E00005B68094AFDF7E4FE044A13680133136056
:103E1000EBE70020014B1860EEE700BF78070020B9
:103E20007C07002080070020F0B100080346D8B1CD
:103E30000268DAB14268DAB18268DAB10F4A126810
:103E400032B9501C0D4908600D490E4841F8220056
:103E50000A4A1268172A0FD8501C084908600849F6
:103E600041F8223001207047002070470020704741
:103E70000020704700207047002070477C0700201A
:103E80008007002058B4000810B4034614460AB155
:103E900000222260002918BF002B25D04FF0000C13
:103EA00060460EE001331A781AB1202AFAD100E0F8
:103EB00001331A78202AFBD02AB10CF1010C61459C
:103EC0000ED08C45EFD35DF8044B7047013210786B
:103ED00008B12028FAD12CB1D21A22601846F0E796
:103EE0001A46F4E71846ECE70020ECE7002918BF73
:103EF00000285AD02DE9F84F174680468946002AF7
:103F000055D02C4BD3F800A0BAF1000F36D00023C7
:103F100089F80030274B1B689B6842463946484663
:103F20009847002844D1234B00221A6040E0013515
:103F3000214B1B68AB4216D9204B53F825B0DBF858
:103F400000603046FCF79CFE04460246414630467F
:103F5000FDF72CFD0028EAD118F80430002B18BF1B
:103F6000202BE4D1DA46BAF1000F09D09AF90C40BF
:103F7000002C0DDA0F4BC3F800A0C8E70025D7E7E7
:103F80000F4B104A39464846FDF722FE00200FE04D
:103F90004046FFF70DFFA042ECD00B4B094A3946D3
:103FA0004846FDF715FE002002E000207047002083
:103FB000BDE8F88F740700207C07002080070020F0
:103FC000F4B10008F0B1000840B2000810B584B0A8
:103FD0000024009401940294039401F079F90123E0
:103FE0008DF800308DF8014001941F228DF80820D3
:103FF00087228DF809208DF80A408DF80B408DF846
:104000000C308DF80D308DF80E408DF80F4068465D
:1040100001F07CF9042001F069F904B010BD000042
:1040200008B50268034B9A4200D008BD01F0DCF8E5
:10403000FBE700BF0000014072B6FEE700B595B097
:104040003422002107A8FCF787FE00230293039384
:10405000049305930693234B1A6C42F080521A6422
:104060001B6C03F080530093009B1F4B1A6842F4B3
:1040700040421A601B6803F440430193019B0123F3
:1040800007934FF48033089302230D934FF480027B
:104090000E9204220F92C82210921193129313933E
:1040A00007A801F05FF9B0B902F004FBA8B90F232B
:1040B000029302230393002304934FF4A053059328
:1040C0004FF480530693062102A801F0DBFB30B9C0
:1040D00015B05DF804FBFFF7AFFFFFF7ADFFFFF78B
:1040E000ABFF00BF003802400070004008B5FFF78A
:1040F0006DFF01F06DF8FFF7A1FF00F025F800F06B
:10410000A5F900F0C5F900F0E7F900F009FA00F0B0
:10411000E5FA00F03DFB00F067FB00F091FB00F0DA
:1041200067FC00F08BFC00F08DFD00F001FE00F05C
:104130001BFE00F035FE00F005FDFFF775F900F0FD
:104140002FF906F0A9F8FEE72DE9F04790B000241A
:104150000B940C940D940E940F947D4B1A6B42F0BB
:1041600010021A631A6B02F010020192019A1A6B84
:1041700042F020021A631A6B02F020020292029AA5
:104180001A6B42F080021A631A6B02F080020392EB
:10419000039A1A6B42F001021A631A6B02F00102D1
:1041A0000492049A1A6B42F004021A631A6B02F02A
:1041B00004020592059A1A6B42F002021A631A6B06
:1041C00002F002020692069A1A6B42F480721A6397
:1041D0001A6B02F480720792079A1A6B42F400720B
:1041E0001A631A6B02F400720892089A1A6B42F072
:1041F00040021A631A6B02F040020992099A1A6B84
:1042000042F008021A631B6B03F008030A930A9B2F
:10421000DFF85CA122461F21504602F02FF8DFF89C
:10422000549122464FF47841484602F027F8494F0E
:1042300022460121384602F021F8474E22464FF42B
:104240003041304602F01AF8DFF82C8122464FF454
:104250007F41404602F012F84FF40C730B930C941C
:104260000D940BA93D4801F007FF07230B930C9415
:104270000D940BA9304601F0FFFE4FF400430B9361
:104280000C940D940BA9364801F0F6FE1F230B93F6
:1042900001250C950D940E940BA9504601F0ECFEEF
:1042A0004FF478430B930C950D940E940BA948464C
:1042B00001F0E2FE0B950C950D940E940BA9384677
:1042C00001F0DAFE02230B930C940D940BA93846EF
:1042D00001F0D2FE4FF47E430B930C940D940BA986
:1042E000204801F0C9FE4FF4F0530B930C940D9449
:1042F0000BA91D4801F0C0FE4FF430430B930C9501
:104300000D940E940BA9304601F0B6FE4FF4804395
:104310000B934FF488130C930D940BA9304601F0C6
:10432000ABFE4FF47F430B930C950D940E940BA9A9
:10433000404601F0A1FE4FF4C0630B930C940D9422
:104340000BA90A4801F098FE10B0BDE8F08700BF45
:1043500000380240001802400004024000080240F9
:104360000020024000100240001C024000000240F9
:104370000024024000140240000C024008B5012055
:1043800005F0C2FFFBE70000034B0360034B0B602B
:104390004FF4807313607047E00B0020E0070020AB
:1043A00010B59CB0244C0DF1540CA646BEE80F008D
:1043B000ACE80F009EE807008CE80700002115A874
:1043C00005F06FFF1D4B18600DF1380C04F11C0E49
:1043D000BEE80F00ACE80F009EE807008CE807007D
:1043E00000210EA805F05DFF154B18600DF11C0CA7
:1043F00004F1380EBEE80F00ACE80F009EE807009D
:104400008CE80700002107A805F04BFF0D4B186052
:10441000EE4604F1540CBCE80F00AEE80F009CE837
:1044200007008EE807000021684605F03AFF064BBA
:1044300018601CB010BD00BF30A900084C0C002053
:10444000480C0020440C0020400C002000B583B034
:104450000E4B1A6B42F400121A631B6B03F4001329
:104460000193019B002205210D2000F013FF0D2078
:1044700000F020FF002205210F2000F00BFF0F208D
:1044800000F018FF03B05DF804FB00BF00380240E5
:1044900008B50F480F4B036005234360002383607A
:1044A0004FF04072C2604FF4402202614FF4A0020C
:1044B00042610376012242768276C27603774377A1
:1044C00002F0C9FD00B908BDFFF7B6FDFBE700BF6C
:1044D000A40C00200064004008B50F480F4B036097
:1044E00005234360002383604FF04072C2604FF4A5
:1044F000402202614FF4A00242610376012242761B
:104500008276C2760377437702F0A5FD00B908BD35
:10451000FFF792FDFBE700BF7C0C00200068004025
:1045200008B50C480C4B03600A23436000238360EA
:10453000C3604FF4E02202614361037643768376E1
:10454000C3760377437702F086FD00B908BDFFF715
:1045500073FDFBE7540C00200034004000B58DB023
:1045600000230793089309930A930B930368544A13
:10457000934208D0534A93422ED0534A93425DD07F
:104580000DB05DF804FB514A136801331360012B31
:1045900017D04F4B1A6B42F001021A631B6B03F0EA
:1045A00001030193019B4FF4C05307930223089327
:1045B00003230A9309230B9307A9464801F05CFDE6
:1045C000DEE7434B1A6C42F000721A641B6C03F076
:1045D00000730093009BDCE73D4B1A6C42F0806255
:1045E0001A641B6C03F080630293029B374A1368C2
:1045F00001331360012B16D0354B1A6B42F00202C7
:104600001A631B6B03F002030493049B602307935C
:104610000223089303230A9309230B9307A92E4827
:1046200001F02AFDACE72A4B1A6C42F000721A64C2
:104630001B6C03F000730393039BDDE7244B1A6CA0
:1046400042F400521A641A6C02F400520592059A60
:104650001A6B42F001021A631B6B03F0010306930D
:10466000069B4FF4014307930223089303230A9305
:104670000B230B9307A9174801F0FEFC002205212C
:10468000682000F007FE682000F014FE00220521DB
:10469000692000F0FFFD692000F00CFE00220521DA
:1046A0006A2000F0F7FD6A2000F004FE00220521D8
:1046B0006B2000F0EFFD6B2000F0FCFD60E700BF19
:1046C000006400400068004000340040500C0020AE
:1046D00000380240000002400004024000B583B0F0
:1046E0000023009301931048104B036003F0DEF8A1
:1046F00080B900220092019269460B4803F0E8F865
:1047000058B910226946084803F0E2F840B903B0EE
:104710005DF804FBFFF790FCEBE7FFF78DFCF0E79B
:10472000FFF78AFCF3E700BFCC0C002000740040C8
:1047300000B589B000230393049305930693079370
:104740000268114B9A4202D009B05DF804FB03F5F0
:10475000E2331A6C42F000521A641A6C02F00052F2
:104760000192019A1A6B42F001021A631B6B03F06B
:1047700001030293029B302303930323049303A9B1
:10478000024801F079FCDFE70074004000000240BD
:1047900008B51248124B0360124B4360002383603C
:1047A0000122C260036143618361C361036202F05D
:1047B00009FF50B90021094803F01EF840B9002153
:1047C000064803F047F830B908BDFFF735FCF1E7BC
:1047D000FFF732FCF3E7FFF72FFCF5E7880D002029
:1047E00000540040FFEAC00008B51248124B0360B5
:1047F000124B4360002383600122C2600361436166
:104800008361C361036202F0DDFE50B900210948F3
:1048100002F0F2FF40B90021064803F01BF830B95E
:1048200008BDFFF709FCF1E7FFF706FCF3E7FFF728
:1048300003FCF5E7340D002000580040FFEAC000FB
:1048400008B51248124B0360124B4360002383608B
:104850000122C260036143618361C361036202F0AC
:10486000B1FE50B90021094802F0C6FF40B900214D
:10487000064802F0EFFF30B908BDFFF7DDFBF1E7B6
:10488000FFF7DAFBF3E7FFF7D7FBF5E7E00C0020D3
:10489000005C0040FFEAC00010B5B0B00446002143
:1048A0002B912C912D912E912F91902207A8FCF7FE
:1048B00053FA2368474A934207D0474A934231D07C
:1048C000464A934259D030B010BD4FF4804307930D
:1048D00007A801F0D1F810BB414C236B43F0020351
:1048E0002363236B03F002030193019B4FF4407396
:1048F0002B9312232C9300232D9303232E93042315
:104900002F932BA9374801F0B7FB236C43F4001316
:104910002364236C03F400130293029BD3E7FFF795
:104920008BFBD9E74FF40043079307A801F0A4F8E5
:1049300000BB2B4C236B43F020032363236B03F05A
:1049400020030393039B03232B9312222C92002218
:104950002D922E9304232F932BA9234801F08CFB37
:10496000236C43F480032364236C03F480030493D7
:10497000049BA8E7FFF760FBDBE74FF48033079366
:1049800007A801F079F810BB154C236B43F08003A6
:104990002363236B03F080030593059B4FF4C073DF
:1049A0002B9312232C9300232D9303232E93042364
:1049B0002F932BA90D4801F05FFB236C43F40003F8
:1049C0002364236C03F400030693069B7BE7FFF745
:1049D00033FBD9E70054004000580040005C004021
:1049E000003802400004024000140240001C024053
:1049F00008B51048104B03604FF4827343600023E6
:104A000083604FF4E062C260036143614FF480222F
:104A100082612822C2610362436283620722C2620A
:104A200003630823436302F088FF00B908BDFFF762
:104A300003FBFBE7400E00200034014008B510489E
:104A4000104B03604FF482734360002383604FF484
:104A5000E062C260036143614FF4802282612822D8
:104A6000C2610362436283620722C2620363082356
:104A7000436302F062FF00B908BDFFF7DDFAFBE710
:104A8000DC0D00200050014000B58BB000230593E1
:104A900006930793089309930368254A934205D028
:104AA000244A934222D00BB05DF804FB224B5A6C8F
:104AB00042F400525A645A6C02F400520192019A74
:104AC0001A6B42F010021A631B6B03F0100302937F
:104AD000029B742305930223069303230893052363
:104AE000099305A9154801F0C7FADCE7124B5A6C87
:104AF00042F480125A645A6C02F480120392039AB0
:104B00001A6B42F020021A631B6B03F0200304931C
:104B1000049B4FF4707305930223069303230893B9
:104B20000523099305A9064801F0A6FABBE700BFD3
:104B300000340140005001400038024000100240A3
:104B40000014024000B585B0002301930293039343
:104B50000E480F4A0260436083604FF6FF72C260E6
:104B6000836102F0A7F850B900230193039301A9D0
:104B7000064802F0D5F928B905B05DF804FBFFF747
:104B80005BFAF1E7FFF758FAF6E700BFF00E0020F6
:104B9000001400400268094B9A4200D0704782B06E
:104BA00003F509331A6C42F020021A641B6C03F0FF
:104BB00020030193019B02B0704700BF0014004026
:104BC0000268094B9A4200D0704782B003F59A33CD
:104BD0005A6C42F002025A645B6C03F002030193C8
:104BE000019B02B0704700BF0004014000B587B0D0
:104BF000002301930293039304930593026803F146
:104C0000804303F582339A4202D007B05DF804FB7B
:104C100003F59A331A6B42F004021A631B6B03F01C
:104C200004030093009B4FF4E0730193022302936B
:104C300004930323059301A9014801F01DFAE4E759
:104C40000008024010B596B00024139414941594F3
:104C50000C940D940E940F941094119412942C2291
:104C6000214601A8FCF778F82F48304B03604460D8
:104C700084604FF6FF73C36004614461846102F095
:104C800049F800283DD1002313931493159313A9D9
:104C9000254802F045F9002836D160230C93002204
:104CA0000D920E920F921092119212920CA91E4820
:104CB00002F098F858BB04220CA91B4802F092F8A5
:104CC00040BB08220CA9184802F08CF828BB00232E
:104CD000019302930393049305934FF400520692B9
:104CE000079308934FF0007209920A930B9301A95E
:104CF0000D4802F065F998B90B48FFF777FF16B039
:104D000010BDFFF799F9BEE7FFF796F9C5E7FFF782
:104D100093F9D0E7FFF790F9D3E7FFF78DF9D6E7DE
:104D2000FFF78AF9E8E700BFA40E00200004014065
:104D300008B50B480B4B03604FF4E133436000238D
:104D40008360C36003610C2242618361C3610362BB
:104D5000436203F053FA00B908BDFFF76DF9FBE7B2
:104D60000C110020004C004008B50B480B4B0360B1
:104D70004FF4E133436000238360C36003610C227E
:104D800042618361C3610362436203F037FA00B991
:104D900008BDFFF751F9FBE78410002000780040C0
:104DA00008B50B480B4B03604FF4E133436000231D
:104DB0008360C36003610C2242618361C36103624B
:104DC000436203F01BFA00B908BDFFF735F9FBE7B2
:104DD000FC0F002000480040F0B5B1B004460021AF
:104DE0002B912C912D912E912F91902207A8FBF7BA
:104DF000B3FF23686B4A934208D06B4A934269D051
:104E00006A4A934200F0938031B0F0BD4FF40073D2
:104E1000079307A800F030FE002852D1644B1A6CAB
:104E200042F400221A641A6C02F400220192019AE0
:104E30001A6B42F080021A631B6B03F0800302932B
:104E4000029B4FF4C0432B9302232C9300252D95F6
:104E500003232E9308232F932BA9564801F00CF916
:104E60005548564B03604FF0006343608560C56052
:104E70004FF480630361456185614FF48073C361C2
:104E80000562456201F086FAF0B94B4B63679C639B
:104E90004B484C4B03604FF00063436040238360FA
:104EA0000023C3604FF48062026143618361C36188
:104EB0000362436201F06EFA48B9414B23679C6379
:104EC000A2E7FFF7B9F8A9E7FFF7B6F8DDE7FFF7C4
:104ED000B3F8F2E74FF48053079307A800F0CCFD36
:104EE00010BB334B1A6C42F080421A641A6C02F009
:104EF00080420392039A1A6B42F010021A631B6BF2
:104F000003F010030493049B4FF4C0732B9302230C
:104F10002C9300232D9303232E9308232F932BA947
:104F2000294801F0A9F86FE7FFF786F8D9E74FF4B1
:104F30008073079307A800F09FFD00282FD11C4B1A
:104F40001A6C42F480221A641A6C02F480220592D0
:104F5000059A1A6B42F002021A631B6B03F00203FC
:104F60000693069B4FF480632B9302272C97002314
:104F70002D9303262E9607252F95144C2BA92046FA
:104F800001F07AF84FF400632B932C9701232D93B3
:104F90002E962F952BA9204601F06EF834E7FFF7E7
:104FA0004BF8CCE7004C004000780040004800403F
:104FB00000380240001C02409C0F0020406002406C
:104FC0003C0F0020706002400010024000040240CC
:104FD000FEE7FEE7FEE7FEE7FEE7704708B502489A
:104FE00001F07AFA08BD00BF9C0F002008B5024806
:104FF00001F072FA08BD00BF3C0F002008B502485E
:1050000001F010FD08BD00BF9411002008B5024852
:1050100002F0D4F808BD00BF540C002008B50248C7
:1050200002F0CCF808BD00BF540C002008B50248BF
:1050300002F0C4F808BD00BF540C002008B50248B7
:1050400002F0BCF808BD00BF540C002000B583B0CE
:105050000D4B1A6C42F080521A641A6C02F08052A6
:105060000092009A5A6C42F480425A645B6C03F4DA
:1050700080430193019B00220F216FF0010000F09B
:1050800009F903B05DF804FB0038024030B589B07F
:1050900004461E4B5A6C42F001025A645B6C03F0EA
:1050A00001030193019B02A903A800F0C7FC00F0D3
:1050B000B5FC4300164AA2FB03239B0C013B154899
:1050C000154A026040F2E732C26043600023036188
:1050D0008360836101F0EEFD054610B1284609B0FA
:1050E00030BD0C4801F052FC05460028F6D11920CD
:1050F00000F0E0F80F2C01D90125EFE7002221464E
:10510000192000F0C7F8054B1C60E7E700380240A3
:1051100083DE1B4394110020000001406800002042
:10512000034AD2F8883043F47003C2F888307047DD
:1051300000ED00E070B50C461646002506E0AFF322
:105140000080214601F8010B01350C46B542F6DB23
:10515000304670BD70B50C461646002504E014F8C4
:10516000010BFEF74DFD0135B542F8DB304670BD51
:105170004FF0FF3070474FF400534B6000207047F2
:10518000012070470020704710B503460C4A0D49B6
:105190000D48006840B10C4800680344521A93421D
:1051A00006D8094A136010BD0748084C0460F2E7AE
:1051B000FBF7F8FE0C2303604FF0FF30F3E700BF6E
:1051C0000000082000040000E011002090D600201C
:1051D00008B5032000F04CF80F20FFF757FFFFF74A
:1051E00035FF002008BD0000034A1168034B1B78FF
:1051F0000B441360704700BFE411002064000020DE
:10520000014B1868704700BFE4110020002804DB40
:105210000901C9B2044B1954704700F00F0009018D
:10522000C9B2024B1954704700E400E014ED00E0ED
:1052300000B500F00700C0F1070CBCF1040F28BF57
:105240004FF0040C031D062B0FD9C31E4FF0FF3E79
:105250000EFA0CF021EA000199400EFA03FE22EA50
:105260000E0241EA02005DF804FB0023EEE70000B5
:105270000649CB6823F4E0631B041B0C000200F416
:10528000E0600343024A1A43CA60704700ED00E041
:105290000000FA0510B50446054BD868C0F302209B
:1052A000FFF7C6FF01462046FFF7B0FF10BD00BF65
:1052B00000ED00E0002807DB00F01F024009012399
:1052C0009340024A42F82030704700BF00E100E0FE
:1052D000BFF35F8F044B5A6A22F480325A62002275
:1052E000C3F89420704700BF00ED00E040F00100DB
:1052F000054BC3F894005A6A42F480325A62BFF3F5
:105300004F8FBFF36F8F704700ED00E04378144A72
:10531000C2F89830D2F8A03023F00103C2F8A030D0
:105320004368C2F89C30017BC37A1B0643EA0173D1
:10533000817A43EAC143417B43EA8143817B43EA6B
:105340004143C17B43EA0143417A43EA0123017AA5
:1053500043EA410301780B43C2F8A030704700BF15
:1053600000ED00E0002800F0068270B582B004462F
:10537000036813F0010F29D0954B9B6803F00C03D1
:10538000042B1AD0924B9B6803F00C03082B0FD010
:105390006368B3F5803F40D0002B54D18C4B1A6822
:1053A00022F480321A601A6822F480221A6039E0EE
:1053B000874B5B6813F4800FEAD0854B1B6813F4AE
:1053C000003F03D06368002B00F0D781236813F0FF
:1053D000020F74D07E4B9B6813F00C0F5ED07C4B99
:1053E0009B6803F00C03082B53D0E368002B00F0FC
:1053F0008980774A136843F001031360FFF700FFC9
:105400000546734B1B6813F0020F72D1FFF7F8FECD
:10541000401B0228F5D90320B4E16D4A136843F418
:105420008033136063682BB3FFF7EAFE0546684BD1
:105430001B6813F4003FC9D1FFF7E2FE401B64284C
:10544000F5D903209EE1B3F5A02F09D0604B1A686F
:1054500022F480321A601A6822F480221A60E1E78E
:105460005B4B1A6842F480221A601A6842F4803258
:105470001A60D7E7FFF7C4FE0546554B1B6813F4C7
:10548000003FA3D0FFF7BCFE401B6428F5D90320E2
:1054900078E14F4B5B6813F4800FA6D14C4B1B682F
:1054A00013F0020F03D0E368012B40F06881484AF3
:1054B000136823F0F803216943EAC10313602368EA
:1054C00013F0080F46D0636983B3414A536F43F02A
:1054D00001035367FFF794FE05463D4B5B6F13F0E6
:1054E000020F37D1FFF78CFE401B0228F5D90320AD
:1054F00048E1374A136823F0F803216943EAC103FE
:105500001360DCE7324A136823F001031360FFF7EE
:1055100077FE05462E4B1B6813F0020FCFD0FFF726
:105520006FFE401B0228F5D903202BE1284A536F58
:1055300023F001035367FFF763FE0546244B5B6FBF
:1055400013F0020F06D0FFF75BFE401B0228F5D9CF
:10555000032017E1236813F0040F7DD01C4B1B6C54
:1055600013F0805F1ED11A4B1A6C42F080521A64FD
:105570001B6C03F080530193019B0125154B1B68A5
:1055800013F4807F10D0A368012B25D0002B3BD1D2
:105590000F4B1A6F22F001021A671A6F22F00402F1
:1055A0001A671EE00025E9E70A4A136843F480738E
:1055B0001360FFF725FE0646064B1B6813F4807F39
:1055C000E1D1FFF71DFE801B6428F5D90320D9E047
:1055D0000038024000700040724A136F43F001032C
:1055E0001367A36833B3FFF70BFE06466D4B1B6FC3
:1055F00013F0020F2FD1FFF703FE801B41F2883317
:105600009842F3D90320BDE0052B09D0654B1A6FF2
:1056100022F001021A671A6F22F004021A67E0E70B
:10562000604B1A6F42F004021A671A6F42F00102CF
:105630001A67D6E7FFF7E4FD06465A4B1B6F13F0D7
:10564000020F08D0FFF7DCFD801B41F2883398423F
:10565000F3D9032096E0FDB9A369002B00F09180F7
:10566000504A926802F00C02082A59D0022B19D035
:105670004C4A136823F080731360FFF7C1FD0446A2
:10568000484B1B6813F0007F48D0FFF7B9FD001BA3
:105690000228F5D9032075E0424A136C23F08053A9
:1056A0001364D9E73F4A136823F080731360FFF750
:1056B000A7FD05463B4B1B6813F0007F06D0FFF7A4
:1056C0009FFD401B0228F5D903205BE0E369226AB5
:1056D0001343626A43EA8213A26A5208013A43EA18
:1056E0000243E26A43EA0263226B43EA02732D4AF1
:1056F0005360136843F080731360FFF781FD044625
:10570000284B1B6813F0007F06D1FFF779FD001BC3
:105710000228F5D9032035E0002033E0002031E0F5
:10572000204A5268012B2FD002F48003E1698B429A
:105730002CD102F03F03216A8B4229D1616A47F6DE
:10574000C0731340B3EB811F24D102F44031A36A2C
:105750005B08013BB1EB034F1ED102F07063E16ABD
:10576000B3EB016F1AD102F0E042236BB2EB037F7F
:1057700016D1002006E001207047012002E0012040
:1057800000E0002002B070BD0120FBE70120F9E736
:105790000120F7E70120F5E70120F3E70120F1E719
:1057A0000120EFE70038024008B5334B9B6803F057
:1057B0000C03042B5BD0082B5BD12F4B5A6802F0F3
:1057C0003F025B6813F4800F2CD02B4B5868C0F35A
:1057D00088104FEA401CBCEB000C6EEB0E0E4FEA3B
:1057E0008E1343EA9C634FEA8C11B1EB0C0163EB1F
:1057F0000E03DB0043EA5173C90011EB000C43F1C7
:105800000003590200234FEA4C2041EADC51FDF726
:1058100081FC194B5B68C3F3014301335B00B0FBB0
:10582000F3F008BD144B5868C0F388104FEA401CD1
:10583000BCEB000C6EEB0E0E4FEA8E1343EA9C633A
:105840004FEA8C11B1EB0C0163EB0E03DB0043EA72
:105850005173C90011EB000C43F1000399020023BE
:105860004FEA8C2041EA9C51FDF754FCD1E70348F4
:10587000D7E70348D5E700BF0038024000127A009E
:105880000024F400002800F0A08070B50D46044606
:10589000524B1B6803F00F038B420BD24F4A136825
:1058A00023F00F030B431360136803F00F038B42C5
:1058B00040F08D80236813F0020F17D013F0040F0F
:1058C00004D0474A936843F4E0539360236813F08D
:1058D000080F04D0424A936843F460439360404AFF
:1058E000936823F0F003A1680B439360236813F0DF
:1058F000010F31D06368012B20D0022B25D0384A0C
:10590000126812F0020F64D035498A6822F003024F
:1059100013438B60FFF774FC0646314B9B6803F022
:105920000C036268B3EB820F16D0FFF769FC801B93
:1059300041F288339842F0D9032045E0284A1268A2
:1059400012F4003FE0D101203EE0254A126812F037
:10595000007FD9D1012037E0204B1B6803F00F03F3
:10596000AB420AD91D4A136823F00F032B4313607F
:10597000136803F00F03AB422DD1236813F0040F1B
:1059800006D0174A936823F4E053E1680B43936011
:10599000236813F0080F07D0114A936823F460437B
:1059A000216943EAC1039360FFF7FEFE0C4B9B683D
:1059B000C3F303130B4AD35CD8400B4B18600B4B5B
:1059C0001868FFF763FB002070BD012070470120BD
:1059D000FAE70120F8E70120F6E700BF003C0240AB
:1059E0000038024074B40008600000206800002005
:1059F000014B1868704700BF6000002008B5FFF732
:105A0000F7FF044B9B68C3F38223034AD35CD8405F
:105A100008BD00BF003802406CB4000808B5FFF7AD
:105A2000E7FF044B9B68C3F34233034AD35CD8407F
:105A300008BD00BF003802406CB400080F230360AB
:105A40000B4B9A6802F0030242609A6802F0F0027F
:105A500082609A6802F4E052C2609B68DB0803F43B
:105A6000E0530361034B1B6803F00F030B607047A7
:105A700000380240003C0240F0B583B0044606689E
:105A800016F001060DD0B54B9A6822F400029A6018
:105A90009A68416B0A439A60436B002B00F0678160
:105AA0000026256815F4002511D0AC4AD2F88C30B8
:105AB00023F44013E16B0B43C2F88C30E36BB3F576
:105AC000801F00F05681002B00F0558100252368CF
:105AD00013F4801F0FD0A14AD2F88C3023F4400376
